{
  "contractName": "LandMarketplace",
  "abi": [
    {
      "inputs": [
        {
          "internalType": "uint256",
          "name": "",
          "type": "uint256"
        }
      ],
      "name": "landOwners",
      "outputs": [
        {
          "internalType": "address",
          "name": "",
          "type": "address"
        }
      ],
      "stateMutability": "view",
      "type": "function",
      "constant": true
    },
    {
      "inputs": [
        {
          "internalType": "uint256",
          "name": "",
          "type": "uint256"
        }
      ],
      "name": "landPrices",
      "outputs": [
        {
          "internalType": "uint256",
          "name": "",
          "type": "uint256"
        }
      ],
      "stateMutability": "view",
      "type": "function",
      "constant": true
    },
    {
      "inputs": [
        {
          "internalType": "uint256",
          "name": "landId",
          "type": "uint256"
        },
        {
          "internalType": "uint256",
          "name": "price",
          "type": "uint256"
        }
      ],
      "name": "sellLand",
      "outputs": [],
      "stateMutability": "nonpayable",
      "type": "function"
    },
    {
      "inputs": [
        {
          "internalType": "uint256",
          "name": "landId",
          "type": "uint256"
        }
      ],
      "name": "buyLand",
      "outputs": [],
      "stateMutability": "payable",
      "type": "function",
      "payable": true
    }
  ],
  "bytecode": "0x608060405234801561001057600080fd5b5061065c806100206000396000f3fe60806040526004361061003f5760003560e01c80631a0f76b1146100445780637bb2d6db14610081578063ae940903146100be578063ced39558146100e7575b600080fd5b34801561005057600080fd5b5061006b600480360381019061006691906103e9565b610103565b604051610078919061052c565b60405180910390f35b34801561008d57600080fd5b506100a860048036038101906100a391906103e9565b610136565b6040516100b591906105a7565b60405180910390f35b3480156100ca57600080fd5b506100e560048036038101906100e09190610412565b61014e565b005b61010160048036038101906100fc91906103e9565b61020a565b005b60006020528060005260406000206000915054906101000a900473ffffffffffffffffffffffffffffffffffffffff1681565b60016020528060005260406000206000915090505481565b3373ffffffffffffffffffffffffffffffffffffffff1660008084815260200190815260200160002060009054906101000a900473ffffffffffffffffffffffffffffffffffffffff1673ffffffffffffffffffffffffffffffffffffffff16146101ee576040517f08c379a00000000000000000000000000000000000000000000000000000000081526004016101e590610567565b60405180910390fd5b8060016000848152602001908152602001600020819055505050565b600073ffffffffffffffffffffffffffffffffffffffff1660008083815260200190815260200160002060009054906101000a900473ffffffffffffffffffffffffffffffffffffffff1673ffffffffffffffffffffffffffffffffffffffff1614156102ac576040517f08c379a00000000000000000000000000000000000000000000000000000000081526004016102a390610547565b60405180910390fd5b60016000828152602001908152602001600020543414610301576040517f08c379a00000000000000000000000000000000000000000000000000000000081526004016102f890610587565b60405180910390fd5b600080600083815260200190815260200160002060009054906101000a900473ffffffffffffffffffffffffffffffffffffffff1690503360008084815260200190815260200160002060006101000a81548173ffffffffffffffffffffffffffffffffffffffff021916908373ffffffffffffffffffffffffffffffffffffffff1602179055508073ffffffffffffffffffffffffffffffffffffffff166108fc349081150290604051600060405180830381858888f193505050501580156103cf573d6000803e3d6000fd5b505050565b6000813590506103e38161060f565b92915050565b6000602082840312156103fb57600080fd5b6000610409848285016103d4565b91505092915050565b6000806040838503121561042557600080fd5b6000610433858286016103d4565b9250506020610444858286016103d4565b9150509250929050565b610457816105d3565b82525050565b600061046a6013836105c2565b91507f4c616e64206e6f742072656769737465726564000000000000000000000000006000830152602082019050919050565b60006104aa6015836105c2565b91507f596f7520617265206e6f7420746865206f776e657200000000000000000000006000830152602082019050919050565b60006104ea6010836105c2565b91507f496e636f727265637420616d6f756e74000000000000000000000000000000006000830152602082019050919050565b61052681610605565b82525050565b6000602082019050610541600083018461044e565b92915050565b600060208201905081810360008301526105608161045d565b9050919050565b600060208201905081810360008301526105808161049d565b9050919050565b600060208201905081810360008301526105a0816104dd565b9050919050565b60006020820190506105bc600083018461051d565b92915050565b600082825260208201905092915050565b60006105de826105e5565b9050919050565b600073ffffffffffffffffffffffffffffffffffffffff82169050919050565b6000819050919050565b61061881610605565b811461062357600080fd5b5056fea2646970667358221220968bf07dd8fc040408880ca2cf804a36b72b7173d6f3715f579bb1ab6be010d464736f6c63430008000033",
  "immutableReferences": {},
  "source": "// SPDX-License-Identifier: MIT\r\npragma solidity ^0.8.0;\r\n\r\ncontract LandMarketplace {\r\n    mapping(uint256 => address) public landOwners;\r\n    mapping(uint256 => uint256) public landPrices;\r\n\r\n    function sellLand(uint256 landId, uint256 price) external {\r\n        require(landOwners[landId] == msg.sender, \"You are not the owner\");\r\n        landPrices[landId] = price;\r\n    }\r\n\r\n    function buyLand(uint256 landId) external payable {\r\n        require(landOwners[landId] != address(0), \"Land not registered\");\r\n        require(msg.value == landPrices[landId], \"Incorrect amount\");\r\n        address previousOwner = landOwners[landId];\r\n        landOwners[landId] = msg.sender;\r\n        payable(previousOwner).transfer(msg.value);\r\n    }\r\n}\r\n",
  "sourcePath": "C:\\Users\\admin\\OneDrive\\Desktop\\AssetHub\\contract\\contracts\\LandMarketplace.sol",
  "compiler": {
    "name": "solc",
    "version": "0.8.0+commit.c7dfd78e.Emscripten.clang"
  },
  "schemaVersion": "3.4.16",
  "updatedAt": "2024-02-01T20:02:30.687Z",
  "networkType": "ethereum",
  "devdoc": {
    "kind": "dev",
    "methods": {},
    "version": 1
  },
  "userdoc": {
    "kind": "user",
    "methods": {},
    "version": 1
  }
}