{
  "contractName": "LandRenting",
  "abi": [
    {
      "inputs": [
        {
          "internalType": "uint256",
          "name": "",
          "type": "uint256"
        }
      ],
      "name": "landIsRented",
      "outputs": [
        {
          "internalType": "bool",
          "name": "",
          "type": "bool"
        }
      ],
      "stateMutability": "view",
      "type": "function",
      "constant": true
    },
    {
      "inputs": [
        {
          "internalType": "uint256",
          "name": "",
          "type": "uint256"
        }
      ],
      "name": "landOwners",
      "outputs": [
        {
          "internalType": "address",
          "name": "",
          "type": "address"
        }
      ],
      "stateMutability": "view",
      "type": "function",
      "constant": true
    },
    {
      "inputs": [
        {
          "internalType": "uint256",
          "name": "",
          "type": "uint256"
        }
      ],
      "name": "landRenters",
      "outputs": [
        {
          "internalType": "address",
          "name": "",
          "type": "address"
        }
      ],
      "stateMutability": "view",
      "type": "function",
      "constant": true
    },
    {
      "inputs": [
        {
          "internalType": "uint256",
          "name": "landId",
          "type": "uint256"
        }
      ],
      "name": "rentLand",
      "outputs": [],
      "stateMutability": "payable",
      "type": "function",
      "payable": true
    },
    {
      "inputs": [
        {
          "internalType": "uint256",
          "name": "landId",
          "type": "uint256"
        }
      ],
      "name": "endLandRent",
      "outputs": [],
      "stateMutability": "nonpayable",
      "type": "function"
    }
  ],
  "bytecode": "0x608060405234801561001057600080fd5b506108fb806100206000396000f3fe60806040526004361061004a5760003560e01c80631a0f76b11461004f578063aaacc14d1461008c578063b06f9c9a146100c9578063b9e7c219146100e5578063e0de73841461010e575b600080fd5b34801561005b57600080fd5b50610076600480360381019061007191906105f8565b61014b565b604051610083919061077f565b60405180910390f35b34801561009857600080fd5b506100b360048036038101906100ae91906105f8565b61017e565b6040516100c0919061079a565b60405180910390f35b6100e360048036038101906100de91906105f8565b61019e565b005b3480156100f157600080fd5b5061010c600480360381019061010791906105f8565b6103b5565b005b34801561011a57600080fd5b50610135600480360381019061013091906105f8565b6105b0565b604051610142919061077f565b60405180910390f35b60006020528060005260406000206000915054906101000a900473ffffffffffffffffffffffffffffffffffffffff1681565b60016020528060005260406000206000915054906101000a900460ff1681565b600073ffffffffffffffffffffffffffffffffffffffff1660008083815260200190815260200160002060009054906101000a900473ffffffffffffffffffffffffffffffffffffffff1673ffffffffffffffffffffffffffffffffffffffff161415610240576040517f08c379a0000000000000000000000000000000000000000000000000000000008152600401610237906107b5565b60405180910390fd5b6001600082815260200190815260200160002060009054906101000a900460ff16156102a1576040517f08c379a000000000000000000000000000000000000000000000000000000000815260040161029890610835565b60405180910390fd5b600034116102e4576040517f08c379a00000000000000000000000000000000000000000000000000000000081526004016102db906107d5565b60405180910390fd5b3360008083815260200190815260200160002060006101000a81548173ffffffffffffffffffffffffffffffffffffffff021916908373ffffffffffffffffffffffffffffffffffffffff160217905550600180600083815260200190815260200160002060006101000a81548160ff021916908315150217905550336002600083815260200190815260200160002060006101000a81548173ffffffffffffffffffffffffffffffffffffffff021916908373ffffffffffffffffffffffffffffffffffffffff16021790555050565b3373ffffffffffffffffffffffffffffffffffffffff1660008083815260200190815260200160002060009054906101000a900473ffffffffffffffffffffffffffffffffffffffff1673ffffffffffffffffffffffffffffffffffffffff1614610455576040517f08c379a000000000000000000000000000000000000000000000000000000000815260040161044c906107f5565b60405180910390fd5b6001600082815260200190815260200160002060009054906101000a900460ff166104b5576040517f08c379a00000000000000000000000000000000000000000000000000000000081526004016104ac90610815565b60405180910390fd5b600080600083815260200190815260200160002060006101000a81548173ffffffffffffffffffffffffffffffffffffffff021916908373ffffffffffffffffffffffffffffffffffffffff16021790555060006001600083815260200190815260200160002060006101000a81548160ff0219169083151502179055506002600082815260200190815260200160002060009054906101000a900473ffffffffffffffffffffffffffffffffffffffff1673ffffffffffffffffffffffffffffffffffffffff166108fc479081150290604051600060405180830381858888f193505050501580156105ac573d6000803e3d6000fd5b5050565b60026020528060005260406000206000915054906101000a900473ffffffffffffffffffffffffffffffffffffffff1681565b6000813590506105f2816108ae565b92915050565b60006020828403121561060a57600080fd5b6000610618848285016105e3565b91505092915050565b61062a81610866565b82525050565b61063981610878565b82525050565b600061064c601383610855565b91507f4c616e64206e6f742072656769737465726564000000000000000000000000006000830152602082019050919050565b600061068c601383610855565b91507f496e76616c69642072656e7420616d6f756e74000000000000000000000000006000830152602082019050919050565b60006106cc601583610855565b91507f596f7520617265206e6f7420746865206f776e657200000000000000000000006000830152602082019050919050565b600061070c601283610855565b91507f4c616e64206973206e6f742072656e74656400000000000000000000000000006000830152602082019050919050565b600061074c601383610855565b91507f4c616e6420616c72656164792072656e746564000000000000000000000000006000830152602082019050919050565b60006020820190506107946000830184610621565b92915050565b60006020820190506107af6000830184610630565b92915050565b600060208201905081810360008301526107ce8161063f565b9050919050565b600060208201905081810360008301526107ee8161067f565b9050919050565b6000602082019050818103600083015261080e816106bf565b9050919050565b6000602082019050818103600083015261082e816106ff565b9050919050565b6000602082019050818103600083015261084e8161073f565b9050919050565b600082825260208201905092915050565b600061087182610884565b9050919050565b60008115159050919050565b600073ffffffffffffffffffffffffffffffffffffffff82169050919050565b6000819050919050565b6108b7816108a4565b81146108c257600080fd5b5056fea2646970667358221220dae8bf9a47ba3a073874b43dee102faff267cf5c4c39cb3975873021c287812664736f6c63430008000033",
  "immutableReferences": {},
  "source": "// SPDX-License-Identifier: MIT\r\npragma solidity ^0.8.0;\r\n\r\ncontract LandRenting {\r\n    mapping(uint256 => address) public landOwners;\r\n    mapping(uint256 => bool) public landIsRented;\r\n    mapping(uint256 => address) public landRenters;\r\n\r\n    function rentLand(uint256 landId) external payable {\r\n        require(landOwners[landId] != address(0), \"Land not registered\");\r\n        require(!landIsRented[landId], \"Land already rented\");\r\n        require(msg.value > 0, \"Invalid rent amount\");\r\n        landOwners[landId] = msg.sender;\r\n        landIsRented[landId] = true;\r\n        landRenters[landId] = msg.sender;\r\n    }\r\n\r\n    function endLandRent(uint256 landId) external {\r\n        require(landOwners[landId] == msg.sender, \"You are not the owner\");\r\n        require(landIsRented[landId], \"Land is not rented\");\r\n        landOwners[landId] = address(0);\r\n        landIsRented[landId] = false;\r\n        payable(landRenters[landId]).transfer(address(this).balance);\r\n    }\r\n}\r\n",
  "sourcePath": "C:\\Users\\admin\\OneDrive\\Desktop\\AssetHub\\contract\\contracts\\LandRenting.sol",
  "compiler": {
    "name": "solc",
    "version": "0.8.0+commit.c7dfd78e.Emscripten.clang"
  },
  "schemaVersion": "3.4.16",
  "updatedAt": "2024-02-01T20:02:37.000Z",
  "networkType": "ethereum",
  "devdoc": {
    "kind": "dev",
    "methods": {},
    "version": 1
  },
  "userdoc": {
    "kind": "user",
    "methods": {},
    "version": 1
  }
}