{
  "contractName": "LandRegistration",
  "abi": [
    {
      "inputs": [
        {
          "internalType": "uint256",
          "name": "",
          "type": "uint256"
        }
      ],
      "name": "landOwners",
      "outputs": [
        {
          "internalType": "address",
          "name": "",
          "type": "address"
        }
      ],
      "stateMutability": "view",
      "type": "function",
      "constant": true
    },
    {
      "inputs": [
        {
          "internalType": "uint256",
          "name": "landId",
          "type": "uint256"
        }
      ],
      "name": "registerLand",
      "outputs": [],
      "stateMutability": "nonpayable",
      "type": "function"
    }
  ],
  "bytecode": "0x608060405234801561001057600080fd5b50610311806100206000396000f3fe608060405234801561001057600080fd5b50600436106100365760003560e01c80631a0f76b11461003b578063baadce901461006b575b600080fd5b610055600480360381019061005091906101c4565b610087565b604051610062919061023c565b60405180910390f35b610085600480360381019061008091906101c4565b6100ba565b005b60006020528060005260406000206000915054906101000a900473ffffffffffffffffffffffffffffffffffffffff1681565b600073ffffffffffffffffffffffffffffffffffffffff1660008083815260200190815260200160002060009054906101000a900473ffffffffffffffffffffffffffffffffffffffff1673ffffffffffffffffffffffffffffffffffffffff161461015b576040517f08c379a000000000000000000000000000000000000000000000000000000000815260040161015290610257565b60405180910390fd5b3360008083815260200190815260200160002060006101000a81548173ffffffffffffffffffffffffffffffffffffffff021916908373ffffffffffffffffffffffffffffffffffffffff16021790555050565b6000813590506101be816102c4565b92915050565b6000602082840312156101d657600080fd5b60006101e4848285016101af565b91505092915050565b6101f681610288565b82525050565b6000610209601783610277565b91507f4c616e6420616c726561647920726567697374657265640000000000000000006000830152602082019050919050565b600060208201905061025160008301846101ed565b92915050565b60006020820190508181036000830152610270816101fc565b9050919050565b600082825260208201905092915050565b60006102938261029a565b9050919050565b600073ffffffffffffffffffffffffffffffffffffffff82169050919050565b6000819050919050565b6102cd816102ba565b81146102d857600080fd5b5056fea2646970667358221220784aa70bf08ea1c0558ddeb5f48ba53d67455394c2a8bd4c221d730343ed767364736f6c63430008000033",
  "immutableReferences": {},
  "source": "// SPDX-License-Identifier: MIT\r\npragma solidity ^0.8.0;\r\n\r\ncontract LandRegistration {\r\n    mapping(uint256 => address) public landOwners;\r\n\r\n    function registerLand(uint256 landId) external {\r\n        require(landOwners[landId] == address(0), \"Land already registered\");\r\n        landOwners[landId] = msg.sender;\r\n    }\r\n}\r\n",
  "sourcePath": "C:\\Users\\admin\\OneDrive\\Desktop\\AssetHub\\contract\\contracts\\LandRegistration.sol",
  "compiler": {
    "name": "solc",
    "version": "0.8.0+commit.c7dfd78e.Emscripten.clang"
  },
  "schemaVersion": "3.4.16",
  "updatedAt": "2024-02-01T20:02:25.696Z",
  "networkType": "ethereum",
  "devdoc": {
    "kind": "dev",
    "methods": {},
    "version": 1
  },
  "userdoc": {
    "kind": "user",
    "methods": {},
    "version": 1
  }
}