{
  "contractName": "LandPaymentTracking",
  "abi": [
    {
      "inputs": [
        {
          "internalType": "uint256",
          "name": "",
          "type": "uint256"
        }
      ],
      "name": "landTransactionAmounts",
      "outputs": [
        {
          "internalType": "uint256",
          "name": "",
          "type": "uint256"
        }
      ],
      "stateMutability": "view",
      "type": "function",
      "constant": true
    },
    {
      "inputs": [
        {
          "internalType": "uint256",
          "name": "",
          "type": "uint256"
        }
      ],
      "name": "landTransactionsCompleted",
      "outputs": [
        {
          "internalType": "bool",
          "name": "",
          "type": "bool"
        }
      ],
      "stateMutability": "view",
      "type": "function",
      "constant": true
    },
    {
      "inputs": [
        {
          "internalType": "uint256",
          "name": "landId",
          "type": "uint256"
        },
        {
          "internalType": "uint256",
          "name": "amount",
          "type": "uint256"
        }
      ],
      "name": "initiateLandTransaction",
      "outputs": [],
      "stateMutability": "nonpayable",
      "type": "function"
    },
    {
      "inputs": [
        {
          "internalType": "uint256",
          "name": "landId",
          "type": "uint256"
        }
      ],
      "name": "completeLandTransaction",
      "outputs": [],
      "stateMutability": "nonpayable",
      "type": "function"
    }
  ],
  "bytecode": "0x608060405234801561001057600080fd5b50610427806100206000396000f3fe608060405234801561001057600080fd5b506004361061004c5760003560e01c80631fff714f14610051578063407b0f2f1461006d578063491fd24214610089578063bfb27c0f146100b9575b600080fd5b61006b600480360381019061006691906102c3565b6100e9565b005b6100876004803603810190610082919061029a565b610165565b005b6100a3600480360381019061009e919061029a565b61024d565b6040516100b09190610398565b60405180910390f35b6100d360048036038101906100ce919061029a565b610265565b6040516100e0919061035d565b60405180910390f35b6001600083815260200190815260200160002060009054906101000a900460ff161561014a576040517f08c379a000000000000000000000000000000000000000000000000000000000815260040161014190610378565b60405180910390fd5b80600080848152602001908152602001600020819055505050565b6001600082815260200190815260200160002060009054906101000a900460ff16156101c6576040517f08c379a00000000000000000000000000000000000000000000000000000000081526004016101bd90610378565b60405180910390fd5b3373ffffffffffffffffffffffffffffffffffffffff166108fc600080848152602001908152602001600020549081150290604051600060405180830381858888f1935050505015801561021e573d6000803e3d6000fd5b50600180600083815260200190815260200160002060006101000a81548160ff02191690831515021790555050565b60006020528060005260406000206000915090505481565b60016020528060005260406000206000915054906101000a900460ff1681565b600081359050610294816103da565b92915050565b6000602082840312156102ac57600080fd5b60006102ba84828501610285565b91505092915050565b600080604083850312156102d657600080fd5b60006102e485828601610285565b92505060206102f585828601610285565b9150509250929050565b610308816103c4565b82525050565b600061031b601d836103b3565b91507f5472616e73616374696f6e20616c726561647920636f6d706c657465640000006000830152602082019050919050565b610357816103d0565b82525050565b600060208201905061037260008301846102ff565b92915050565b600060208201905081810360008301526103918161030e565b9050919050565b60006020820190506103ad600083018461034e565b92915050565b600082825260208201905092915050565b60008115159050919050565b6000819050919050565b6103e3816103d0565b81146103ee57600080fd5b5056fea2646970667358221220a87c0fb0ee27a3d7283feac8a090a84ce7580246f3d95616e38669dc9d2a83bf64736f6c63430008000033",
  "immutableReferences": {},
  "source": "// SPDX-License-Identifier: MIT\r\npragma solidity ^0.8.0;\r\n\r\ncontract LandPaymentTracking {\r\n    mapping(uint256 => uint256) public landTransactionAmounts;\r\n    mapping(uint256 => bool) public landTransactionsCompleted;\r\n\r\n    function initiateLandTransaction(uint256 landId, uint256 amount) external {\r\n        require(!landTransactionsCompleted[landId], \"Transaction already completed\");\r\n        landTransactionAmounts[landId] = amount;\r\n    }\r\n\r\n    function completeLandTransaction(uint256 landId) external {\r\n        require(!landTransactionsCompleted[landId], \"Transaction already completed\");\r\n        payable(msg.sender).transfer(landTransactionAmounts[landId]);\r\n        landTransactionsCompleted[landId] = true;\r\n    }\r\n}\r\n",
  "sourcePath": "C:\\Users\\admin\\OneDrive\\Desktop\\AssetHub\\contract\\contracts\\LandPaymentTracking.sol",
  "compiler": {
    "name": "solc",
    "version": "0.8.0+commit.c7dfd78e.Emscripten.clang"
  },
  "schemaVersion": "3.4.16",
  "updatedAt": "2024-02-01T20:02:33.070Z",
  "networkType": "ethereum",
  "devdoc": {
    "kind": "dev",
    "methods": {},
    "version": 1
  },
  "userdoc": {
    "kind": "user",
    "methods": {},
    "version": 1
  }
}