{
  "contractName": "LandAuction",
  "abi": [
    {
      "inputs": [
        {
          "internalType": "uint256",
          "name": "",
          "type": "uint256"
        }
      ],
      "name": "landAuctionEndTimes",
      "outputs": [
        {
          "internalType": "uint256",
          "name": "",
          "type": "uint256"
        }
      ],
      "stateMutability": "view",
      "type": "function",
      "constant": true
    },
    {
      "inputs": [
        {
          "internalType": "uint256",
          "name": "",
          "type": "uint256"
        }
      ],
      "name": "landHighestBidders",
      "outputs": [
        {
          "internalType": "address",
          "name": "",
          "type": "address"
        }
      ],
      "stateMutability": "view",
      "type": "function",
      "constant": true
    },
    {
      "inputs": [
        {
          "internalType": "uint256",
          "name": "",
          "type": "uint256"
        }
      ],
      "name": "landHighestBids",
      "outputs": [
        {
          "internalType": "uint256",
          "name": "",
          "type": "uint256"
        }
      ],
      "stateMutability": "view",
      "type": "function",
      "constant": true
    },
    {
      "inputs": [
        {
          "internalType": "uint256",
          "name": "",
          "type": "uint256"
        }
      ],
      "name": "landOwners",
      "outputs": [
        {
          "internalType": "address",
          "name": "",
          "type": "address"
        }
      ],
      "stateMutability": "view",
      "type": "function",
      "constant": true
    },
    {
      "inputs": [
        {
          "internalType": "uint256",
          "name": "landId",
          "type": "uint256"
        },
        {
          "internalType": "uint256",
          "name": "duration",
          "type": "uint256"
        }
      ],
      "name": "startLandAuction",
      "outputs": [],
      "stateMutability": "nonpayable",
      "type": "function"
    },
    {
      "inputs": [
        {
          "internalType": "uint256",
          "name": "landId",
          "type": "uint256"
        }
      ],
      "name": "placeLandBid",
      "outputs": [],
      "stateMutability": "payable",
      "type": "function",
      "payable": true
    },
    {
      "inputs": [
        {
          "internalType": "uint256",
          "name": "landId",
          "type": "uint256"
        }
      ],
      "name": "endLandAuction",
      "outputs": [],
      "stateMutability": "nonpayable",
      "type": "function"
    }
  ],
  "bytecode": "0x608060405234801561001057600080fd5b50610cb2806100206000396000f3fe6080604052600436106100705760003560e01c806386907a1f1161004e57806386907a1f1461012c578063ceeae3d614610155578063e80cae7f1461017e578063fabfef13146101bb57610070565b80631a0f76b114610075578063590e1af5146100b25780637bd4d8e8146100ef575b600080fd5b34801561008157600080fd5b5061009c6004803603810190610097919061089a565b6101d7565b6040516100a99190610a9d565b60405180910390f35b3480156100be57600080fd5b506100d960048036038101906100d4919061089a565b61020a565b6040516100e69190610a9d565b60405180910390f35b3480156100fb57600080fd5b506101166004803603810190610111919061089a565b61023d565b6040516101239190610b78565b60405180910390f35b34801561013857600080fd5b50610153600480360381019061014e91906108c3565b610255565b005b34801561016157600080fd5b5061017c6004803603810190610177919061089a565b610372565b005b34801561018a57600080fd5b506101a560048036038101906101a0919061089a565b610656565b6040516101b29190610b78565b60405180910390f35b6101d560048036038101906101d0919061089a565b61066e565b005b60006020528060005260406000206000915054906101000a900473ffffffffffffffffffffffffffffffffffffffff1681565b60036020528060005260406000206000915054906101000a900473ffffffffffffffffffffffffffffffffffffffff1681565b60026020528060005260406000206000915090505481565b3373ffffffffffffffffffffffffffffffffffffffff1660008084815260200190815260200160002060009054906101000a900473ffffffffffffffffffffffffffffffffffffffff1673ffffffffffffffffffffffffffffffffffffffff16146102f5576040517f08c379a00000000000000000000000000000000000000000000000000000000081526004016102ec90610af8565b60405180910390fd5b600060016000848152602001908152602001600020541461034b576040517f08c379a000000000000000000000000000000000000000000000000000000000815260040161034290610b18565b60405180910390fd5b80426103579190610ba4565b60016000848152602001908152602001600020819055505050565b3373ffffffffffffffffffffffffffffffffffffffff1660008083815260200190815260200160002060009054906101000a900473ffffffffffffffffffffffffffffffffffffffff1673ffffffffffffffffffffffffffffffffffffffff1614610412576040517f08c379a000000000000000000000000000000000000000000000000000000000815260040161040990610af8565b60405180910390fd5b6000600160008381526020019081526020016000205411610468576040517f08c379a000000000000000000000000000000000000000000000000000000000815260040161045f90610b38565b60405180910390fd5b60016000828152602001908152602001600020544210156104be576040517f08c379a00000000000000000000000000000000000000000000000000000000081526004016104b590610ad8565b60405180910390fd5b60008082815260200190815260200160002060009054906101000a900473ffffffffffffffffffffffffffffffffffffffff1673ffffffffffffffffffffffffffffffffffffffff166108fc60026000848152602001908152602001600020549081150290604051600060405180830381858888f19350505050158015610549573d6000803e3d6000fd5b506003600082815260200190815260200160002060009054906101000a900473ffffffffffffffffffffffffffffffffffffffff1660008083815260200190815260200160002060006101000a81548173ffffffffffffffffffffffffffffffffffffffff021916908373ffffffffffffffffffffffffffffffffffffffff160217905550600060016000838152602001908152602001600020819055506000600260008381526020019081526020016000208190555060006003600083815260200190815260200160002060006101000a81548173ffffffffffffffffffffffffffffffffffffffff021916908373ffffffffffffffffffffffffffffffffffffffff16021790555050565b60016020528060005260406000206000915090505481565b60006001600083815260200190815260200160002054116106c4576040517f08c379a00000000000000000000000000000000000000000000000000000000081526004016106bb90610b38565b60405180910390fd5b60016000828152602001908152602001600020544210610719576040517f08c379a000000000000000000000000000000000000000000000000000000000815260040161071090610b58565b60405180910390fd5b6002600082815260200190815260200160002054341161076e576040517f08c379a000000000000000000000000000000000000000000000000000000000815260040161076590610ab8565b60405180910390fd5b600060026000838152602001908152602001600020541115610818576003600082815260200190815260200160002060009054906101000a900473ffffffffffffffffffffffffffffffffffffffff1673ffffffffffffffffffffffffffffffffffffffff166108fc60026000848152602001908152602001600020549081150290604051600060405180830381858888f19350505050158015610816573d6000803e3d6000fd5b505b346002600083815260200190815260200160002081905550336003600083815260200190815260200160002060006101000a81548173ffffffffffffffffffffffffffffffffffffffff021916908373ffffffffffffffffffffffffffffffffffffffff16021790555050565b60008135905061089481610c65565b92915050565b6000602082840312156108ac57600080fd5b60006108ba84828501610885565b91505092915050565b600080604083850312156108d657600080fd5b60006108e485828601610885565b92505060206108f585828601610885565b9150509250929050565b61090881610bfa565b82525050565b600061091b600b83610b93565b91507f42696420746f6f206c6f770000000000000000000000000000000000000000006000830152602082019050919050565b600061095b601583610b93565b91507f41756374696f6e207374696c6c206f6e676f696e6700000000000000000000006000830152602082019050919050565b600061099b601583610b93565b91507f596f7520617265206e6f7420746865206f776e657200000000000000000000006000830152602082019050919050565b60006109db601783610b93565b91507f41756374696f6e20616c726561647920737461727465640000000000000000006000830152602082019050919050565b6000610a1b601383610b93565b91507f41756374696f6e206e6f742073746172746564000000000000000000000000006000830152602082019050919050565b6000610a5b600d83610b93565b91507f41756374696f6e20656e646564000000000000000000000000000000000000006000830152602082019050919050565b610a9781610c2c565b82525050565b6000602082019050610ab260008301846108ff565b92915050565b60006020820190508181036000830152610ad18161090e565b9050919050565b60006020820190508181036000830152610af18161094e565b9050919050565b60006020820190508181036000830152610b118161098e565b9050919050565b60006020820190508181036000830152610b31816109ce565b9050919050565b60006020820190508181036000830152610b5181610a0e565b9050919050565b60006020820190508181036000830152610b7181610a4e565b9050919050565b6000602082019050610b8d6000830184610a8e565b92915050565b600082825260208201905092915050565b6000610baf82610c2c565b9150610bba83610c2c565b9250827fffffffffffffffffffffffffffffffffffffffffffffffffffffffffffffffff03821115610bef57610bee610c36565b5b828201905092915050565b6000610c0582610c0c565b9050919050565b600073ffffffffffffffffffffffffffffffffffffffff82169050919050565b6000819050919050565b7f4e487b7100000000000000000000000000000000000000000000000000000000600052601160045260246000fd5b610c6e81610c2c565b8114610c7957600080fd5b5056fea2646970667358221220440e1712b7469a2c643bd9e29b279de5feb1d8bf461b1bc7545efe814ac42b0d64736f6c63430008000033",
  "immutableReferences": {},
  "source": "// SPDX-License-Identifier: MIT\r\npragma solidity ^0.8.0;\r\n\r\ncontract LandAuction {\r\n    mapping(uint256 => address) public landOwners;\r\n    mapping(uint256 => uint256) public landAuctionEndTimes;\r\n    mapping(uint256 => uint256) public landHighestBids;\r\n    mapping(uint256 => address) public landHighestBidders;\r\n\r\n    function startLandAuction(uint256 landId, uint256 duration) external {\r\n        require(landOwners[landId] == msg.sender, \"You are not the owner\");\r\n        require(landAuctionEndTimes[landId] == 0, \"Auction already started\");\r\n        landAuctionEndTimes[landId] = block.timestamp + duration;\r\n    }\r\n\r\n    function placeLandBid(uint256 landId) external payable {\r\n        require(landAuctionEndTimes[landId] > 0, \"Auction not started\");\r\n        require(block.timestamp < landAuctionEndTimes[landId], \"Auction ended\");\r\n        require(msg.value > landHighestBids[landId], \"Bid too low\");\r\n        if (landHighestBids[landId] > 0) {\r\n            payable(landHighestBidders[landId]).transfer(landHighestBids[landId]);\r\n        }\r\n        landHighestBids[landId] = msg.value;\r\n        landHighestBidders[landId] = msg.sender;\r\n    }\r\n\r\n    function endLandAuction(uint256 landId) external {\r\n        require(landOwners[landId] == msg.sender, \"You are not the owner\");\r\n        require(landAuctionEndTimes[landId] > 0, \"Auction not started\");\r\n        require(block.timestamp >= landAuctionEndTimes[landId], \"Auction still ongoing\");\r\n        payable(landOwners[landId]).transfer(landHighestBids[landId]);\r\n        landOwners[landId] = landHighestBidders[landId];\r\n        landAuctionEndTimes[landId] = 0;\r\n        landHighestBids[landId] = 0;\r\n        landHighestBidders[landId] = address(0);\r\n    }\r\n}\r\n",
  "sourcePath": "C:\\Users\\admin\\OneDrive\\Desktop\\AssetHub\\contract\\contracts\\LandAuction.sol",
  "compiler": {
    "name": "solc",
    "version": "0.8.0+commit.c7dfd78e.Emscripten.clang"
  },
  "schemaVersion": "3.4.16",
  "updatedAt": "2024-02-01T20:02:28.610Z",
  "networkType": "ethereum",
  "devdoc": {
    "kind": "dev",
    "methods": {},
    "version": 1
  },
  "userdoc": {
    "kind": "user",
    "methods": {},
    "version": 1
  }
}