{
  "contractName": "RentContract",
  "abi": [
    {
      "inputs": [
        {
          "internalType": "address",
          "name": "",
          "type": "address"
        }
      ],
      "name": "rentBalances",
      "outputs": [
        {
          "internalType": "uint256",
          "name": "",
          "type": "uint256"
        }
      ],
      "stateMutability": "view",
      "type": "function",
      "constant": true
    },
    {
      "inputs": [],
      "name": "payRent",
      "outputs": [],
      "stateMutability": "payable",
      "type": "function",
      "payable": true
    },
    {
      "inputs": [],
      "name": "withdrawRent",
      "outputs": [],
      "stateMutability": "nonpayable",
      "type": "function"
    }
  ],
  "bytecode": "0x608060405234801561001057600080fd5b506104dc806100206000396000f3fe6080604052600436106100345760003560e01c80636322182e14610039578063a709c4fe14610050578063db3a588a1461005a575b600080fd5b34801561004557600080fd5b5061004e610097565b005b6100586101e3565b005b34801561006657600080fd5b50610081600480360381019061007c91906102aa565b61027d565b60405161008e91906103a2565b60405180910390f35b60008060003373ffffffffffffffffffffffffffffffffffffffff1673ffffffffffffffffffffffffffffffffffffffff1681526020019081526020016000205411610118576040517f08c379a000000000000000000000000000000000000000000000000000000000815260040161010f90610382565b60405180910390fd5b3373ffffffffffffffffffffffffffffffffffffffff166108fc6000803373ffffffffffffffffffffffffffffffffffffffff1673ffffffffffffffffffffffffffffffffffffffff168152602001908152602001600020549081150290604051600060405180830381858888f1935050505015801561019c573d6000803e3d6000fd5b5060008060003373ffffffffffffffffffffffffffffffffffffffff1673ffffffffffffffffffffffffffffffffffffffff16815260200190815260200160002081905550565b60003411610226576040517f08c379a000000000000000000000000000000000000000000000000000000000815260040161021d90610362565b60405180910390fd5b346000803373ffffffffffffffffffffffffffffffffffffffff1673ffffffffffffffffffffffffffffffffffffffff168152602001908152602001600020600082825461027491906103ce565b92505081905550565b60006020528060005260406000206000915090505481565b6000813590506102a48161048f565b92915050565b6000602082840312156102bc57600080fd5b60006102ca84828501610295565b91505092915050565b60006102e06013836103bd565b91507f496e76616c69642072656e7420616d6f756e74000000000000000000000000006000830152602082019050919050565b6000610320600f836103bd565b91507f4e6f2072656e742062616c616e636500000000000000000000000000000000006000830152602082019050919050565b61035c81610456565b82525050565b6000602082019050818103600083015261037b816102d3565b9050919050565b6000602082019050818103600083015261039b81610313565b9050919050565b60006020820190506103b76000830184610353565b92915050565b600082825260208201905092915050565b60006103d982610456565b91506103e483610456565b9250827fffffffffffffffffffffffffffffffffffffffffffffffffffffffffffffffff0382111561041957610418610460565b5b828201905092915050565b600061042f82610436565b9050919050565b600073ffffffffffffffffffffffffffffffffffffffff82169050919050565b6000819050919050565b7f4e487b7100000000000000000000000000000000000000000000000000000000600052601160045260246000fd5b61049881610424565b81146104a357600080fd5b5056fea2646970667358221220f1bdf38b8308b45cedf386126e3e79b33b62d5521204706ef26d28b8fe1d02b164736f6c63430008000033",
  "immutableReferences": {},
  "source": "// SPDX-License-Identifier: MIT\r\npragma solidity ^0.8.0;\r\n\r\ncontract RentContract {\r\n    mapping(address => uint256) public rentBalances;\r\n\r\n    function payRent() external payable {\r\n        require(msg.value > 0, \"Invalid rent amount\");\r\n        rentBalances[msg.sender] += msg.value;\r\n    }\r\n\r\n    function withdrawRent() external {\r\n        require(rentBalances[msg.sender] > 0, \"No rent balance\");\r\n        payable(msg.sender).transfer(rentBalances[msg.sender]);\r\n        rentBalances[msg.sender] = 0;\r\n    }\r\n}\r\n",
  "sourcePath": "C:\\Users\\admin\\OneDrive\\Desktop\\AssetHub\\contract\\contracts\\RentContract.sol",
  "compiler": {
    "name": "solc",
    "version": "0.8.0+commit.c7dfd78e.Emscripten.clang"
  },
  "schemaVersion": "3.4.16",
  "updatedAt": "2024-02-01T20:02:40.218Z",
  "networkType": "ethereum",
  "devdoc": {
    "kind": "dev",
    "methods": {},
    "version": 1
  },
  "userdoc": {
    "kind": "user",
    "methods": {},
    "version": 1
  }
}