{
  "contractName": "VehicleRenting",
  "abi": [
    {
      "inputs": [
        {
          "internalType": "uint256",
          "name": "",
          "type": "uint256"
        }
      ],
      "name": "vehicleIsRented",
      "outputs": [
        {
          "internalType": "bool",
          "name": "",
          "type": "bool"
        }
      ],
      "stateMutability": "view",
      "type": "function",
      "constant": true
    },
    {
      "inputs": [
        {
          "internalType": "uint256",
          "name": "",
          "type": "uint256"
        }
      ],
      "name": "vehicleOwners",
      "outputs": [
        {
          "internalType": "address",
          "name": "",
          "type": "address"
        }
      ],
      "stateMutability": "view",
      "type": "function",
      "constant": true
    },
    {
      "inputs": [
        {
          "internalType": "uint256",
          "name": "",
          "type": "uint256"
        }
      ],
      "name": "vehicleRenters",
      "outputs": [
        {
          "internalType": "address",
          "name": "",
          "type": "address"
        }
      ],
      "stateMutability": "view",
      "type": "function",
      "constant": true
    },
    {
      "inputs": [
        {
          "internalType": "uint256",
          "name": "vehicleId",
          "type": "uint256"
        }
      ],
      "name": "rentVehicle",
      "outputs": [],
      "stateMutability": "payable",
      "type": "function",
      "payable": true
    },
    {
      "inputs": [
        {
          "internalType": "uint256",
          "name": "vehicleId",
          "type": "uint256"
        }
      ],
      "name": "endVehicleRent",
      "outputs": [],
      "stateMutability": "nonpayable",
      "type": "function"
    }
  ],
  "bytecode": "0x608060405234801561001057600080fd5b506108fa806100206000396000f3fe6080604052600436106100495760003560e01c80622088ce1461004e5780631ddec3601461008b5780638a1a4f38146100c8578063db580894146100e4578063fd91a80214610121575b600080fd5b34801561005a57600080fd5b50610075600480360381019061007091906105f7565b61014a565b604051610082919061077e565b60405180910390f35b34801561009757600080fd5b506100b260048036038101906100ad91906105f7565b61017d565b6040516100bf919061077e565b60405180910390f35b6100e260048036038101906100dd91906105f7565b6101b0565b005b3480156100f057600080fd5b5061010b600480360381019061010691906105f7565b6103c7565b6040516101189190610799565b60405180910390f35b34801561012d57600080fd5b50610148600480360381019061014391906105f7565b6103e7565b005b60006020528060005260406000206000915054906101000a900473ffffffffffffffffffffffffffffffffffffffff1681565b60026020528060005260406000206000915054906101000a900473ffffffffffffffffffffffffffffffffffffffff1681565b600073ffffffffffffffffffffffffffffffffffffffff1660008083815260200190815260200160002060009054906101000a900473ffffffffffffffffffffffffffffffffffffffff1673ffffffffffffffffffffffffffffffffffffffff161415610252576040517f08c379a000000000000000000000000000000000000000000000000000000000815260040161024990610814565b60405180910390fd5b6001600082815260200190815260200160002060009054906101000a900460ff16156102b3576040517f08c379a00000000000000000000000000000000000000000000000000000000081526004016102aa90610834565b60405180910390fd5b600034116102f6576040517f08c379a00000000000000000000000000000000000000000000000000000000081526004016102ed906107b4565b60405180910390fd5b3360008083815260200190815260200160002060006101000a81548173ffffffffffffffffffffffffffffffffffffffff021916908373ffffffffffffffffffffffffffffffffffffffff160217905550600180600083815260200190815260200160002060006101000a81548160ff021916908315150217905550336002600083815260200190815260200160002060006101000a81548173ffffffffffffffffffffffffffffffffffffffff021916908373ffffffffffffffffffffffffffffffffffffffff16021790555050565b60016020528060005260406000206000915054906101000a900460ff1681565b3373ffffffffffffffffffffffffffffffffffffffff1660008083815260200190815260200160002060009054906101000a900473ffffffffffffffffffffffffffffffffffffffff1673ffffffffffffffffffffffffffffffffffffffff1614610487576040517f08c379a000000000000000000000000000000000000000000000000000000000815260040161047e906107d4565b60405180910390fd5b6001600082815260200190815260200160002060009054906101000a900460ff166104e7576040517f08c379a00000000000000000000000000000000000000000000000000000000081526004016104de906107f4565b60405180910390fd5b600080600083815260200190815260200160002060006101000a81548173ffffffffffffffffffffffffffffffffffffffff021916908373ffffffffffffffffffffffffffffffffffffffff16021790555060006001600083815260200190815260200160002060006101000a81548160ff0219169083151502179055506002600082815260200190815260200160002060009054906101000a900473ffffffffffffffffffffffffffffffffffffffff1673ffffffffffffffffffffffffffffffffffffffff166108fc479081150290604051600060405180830381858888f193505050501580156105de573d6000803e3d6000fd5b5050565b6000813590506105f1816108ad565b92915050565b60006020828403121561060957600080fd5b6000610617848285016105e2565b91505092915050565b61062981610865565b82525050565b61063881610877565b82525050565b600061064b601383610854565b91507f496e76616c69642072656e7420616d6f756e74000000000000000000000000006000830152602082019050919050565b600061068b601583610854565b91507f596f7520617265206e6f7420746865206f776e657200000000000000000000006000830152602082019050919050565b60006106cb601583610854565b91507f56656869636c65206973206e6f742072656e74656400000000000000000000006000830152602082019050919050565b600061070b601683610854565b91507f56656869636c65206e6f742072656769737465726564000000000000000000006000830152602082019050919050565b600061074b601683610854565b91507f56656869636c6520616c72656164792072656e746564000000000000000000006000830152602082019050919050565b60006020820190506107936000830184610620565b92915050565b60006020820190506107ae600083018461062f565b92915050565b600060208201905081810360008301526107cd8161063e565b9050919050565b600060208201905081810360008301526107ed8161067e565b9050919050565b6000602082019050818103600083015261080d816106be565b9050919050565b6000602082019050818103600083015261082d816106fe565b9050919050565b6000602082019050818103600083015261084d8161073e565b9050919050565b600082825260208201905092915050565b600061087082610883565b9050919050565b60008115159050919050565b600073ffffffffffffffffffffffffffffffffffffffff82169050919050565b6000819050919050565b6108b6816108a3565b81146108c157600080fd5b5056fea26469706673582212207b860e97c02581909962cfe979bcee9f6fe5338fae096933544db80ed8995c2664736f6c63430008000033",
  "immutableReferences": {},
  "source": "// SPDX-License-Identifier: MIT\r\npragma solidity ^0.8.0;\r\n\r\ncontract VehicleRenting {\r\n    mapping(uint256 => address) public vehicleOwners;\r\n    mapping(uint256 => bool) public vehicleIsRented;\r\n    mapping(uint256 => address) public vehicleRenters;\r\n\r\n    function rentVehicle(uint256 vehicleId) external payable {\r\n        require(vehicleOwners[vehicleId] != address(0), \"Vehicle not registered\");\r\n        require(!vehicleIsRented[vehicleId], \"Vehicle already rented\");\r\n        require(msg.value > 0, \"Invalid rent amount\");\r\n        vehicleOwners[vehicleId] = msg.sender;\r\n        vehicleIsRented[vehicleId] = true;\r\n        vehicleRenters[vehicleId] = msg.sender;\r\n    }\r\n\r\n    function endVehicleRent(uint256 vehicleId) external {\r\n        require(vehicleOwners[vehicleId] == msg.sender, \"You are not the owner\");\r\n        require(vehicleIsRented[vehicleId], \"Vehicle is not rented\");\r\n        vehicleOwners[vehicleId] = address(0);\r\n        vehicleIsRented[vehicleId] = false;\r\n        payable(vehicleRenters[vehicleId]).transfer(address(this).balance);\r\n    }\r\n}\r\n",
  "sourcePath": "C:\\Users\\admin\\OneDrive\\Desktop\\AssetHub\\contract\\contracts\\VehicleRenting.sol",
  "compiler": {
    "name": "solc",
    "version": "0.8.0+commit.c7dfd78e.Emscripten.clang"
  },
  "schemaVersion": "3.4.16",
  "updatedAt": "2024-02-01T20:02:38.696Z",
  "networkType": "ethereum",
  "devdoc": {
    "kind": "dev",
    "methods": {},
    "version": 1
  },
  "userdoc": {
    "kind": "user",
    "methods": {},
    "version": 1
  }
}