{
  "contractName": "VehicleRegistration",
  "abi": [
    {
      "inputs": [
        {
          "internalType": "uint256",
          "name": "",
          "type": "uint256"
        }
      ],
      "name": "vehicleOwners",
      "outputs": [
        {
          "internalType": "address",
          "name": "",
          "type": "address"
        }
      ],
      "stateMutability": "view",
      "type": "function",
      "constant": true
    },
    {
      "inputs": [
        {
          "internalType": "uint256",
          "name": "vehicleId",
          "type": "uint256"
        }
      ],
      "name": "registerVehicle",
      "outputs": [],
      "stateMutability": "nonpayable",
      "type": "function"
    }
  ],
  "bytecode": "0x608060405234801561001057600080fd5b50610310806100206000396000f3fe608060405234801561001057600080fd5b50600436106100355760003560e01c80622088ce1461003a578063cdd30c2f1461006a575b600080fd5b610054600480360381019061004f91906101c3565b610086565b604051610061919061023b565b60405180910390f35b610084600480360381019061007f91906101c3565b6100b9565b005b60006020528060005260406000206000915054906101000a900473ffffffffffffffffffffffffffffffffffffffff1681565b600073ffffffffffffffffffffffffffffffffffffffff1660008083815260200190815260200160002060009054906101000a900473ffffffffffffffffffffffffffffffffffffffff1673ffffffffffffffffffffffffffffffffffffffff161461015a576040517f08c379a000000000000000000000000000000000000000000000000000000000815260040161015190610256565b60405180910390fd5b3360008083815260200190815260200160002060006101000a81548173ffffffffffffffffffffffffffffffffffffffff021916908373ffffffffffffffffffffffffffffffffffffffff16021790555050565b6000813590506101bd816102c3565b92915050565b6000602082840312156101d557600080fd5b60006101e3848285016101ae565b91505092915050565b6101f581610287565b82525050565b6000610208601a83610276565b91507f56656869636c6520616c726561647920726567697374657265640000000000006000830152602082019050919050565b600060208201905061025060008301846101ec565b92915050565b6000602082019050818103600083015261026f816101fb565b9050919050565b600082825260208201905092915050565b600061029282610299565b9050919050565b600073ffffffffffffffffffffffffffffffffffffffff82169050919050565b6000819050919050565b6102cc816102b9565b81146102d757600080fd5b5056fea2646970667358221220c76cfbce066c8884f37d123df2a550df1979a26d8c7c7587c70c3abd24afd35c64736f6c63430008000033",
  "immutableReferences": {},
  "source": "// SPDX-License-Identifier: MIT\r\npragma solidity ^0.8.0;\r\n\r\ncontract VehicleRegistration {\r\n    mapping(uint256 => address) public vehicleOwners;\r\n\r\n    function registerVehicle(uint256 vehicleId) external {\r\n        require(vehicleOwners[vehicleId] == address(0), \"Vehicle already registered\");\r\n        vehicleOwners[vehicleId] = msg.sender;\r\n    }\r\n}\r\n",
  "sourcePath": "C:\\Users\\admin\\OneDrive\\Desktop\\AssetHub\\contract\\contracts\\VehicleRegistration.sol",
  "compiler": {
    "name": "solc",
    "version": "0.8.0+commit.c7dfd78e.Emscripten.clang"
  },
  "schemaVersion": "3.4.16",
  "updatedAt": "2024-02-01T20:02:27.017Z",
  "networkType": "ethereum",
  "devdoc": {
    "kind": "dev",
    "methods": {},
    "version": 1
  },
  "userdoc": {
    "kind": "user",
    "methods": {},
    "version": 1
  }
}