{
  "contractName": "VehicleAuction",
  "abi": [
    {
      "inputs": [
        {
          "internalType": "uint256",
          "name": "",
          "type": "uint256"
        }
      ],
      "name": "vehicleAuctionEndTimes",
      "outputs": [
        {
          "internalType": "uint256",
          "name": "",
          "type": "uint256"
        }
      ],
      "stateMutability": "view",
      "type": "function",
      "constant": true
    },
    {
      "inputs": [
        {
          "internalType": "uint256",
          "name": "",
          "type": "uint256"
        }
      ],
      "name": "vehicleHighestBidders",
      "outputs": [
        {
          "internalType": "address",
          "name": "",
          "type": "address"
        }
      ],
      "stateMutability": "view",
      "type": "function",
      "constant": true
    },
    {
      "inputs": [
        {
          "internalType": "uint256",
          "name": "",
          "type": "uint256"
        }
      ],
      "name": "vehicleHighestBids",
      "outputs": [
        {
          "internalType": "uint256",
          "name": "",
          "type": "uint256"
        }
      ],
      "stateMutability": "view",
      "type": "function",
      "constant": true
    },
    {
      "inputs": [
        {
          "internalType": "uint256",
          "name": "",
          "type": "uint256"
        }
      ],
      "name": "vehicleOwners",
      "outputs": [
        {
          "internalType": "address",
          "name": "",
          "type": "address"
        }
      ],
      "stateMutability": "view",
      "type": "function",
      "constant": true
    },
    {
      "inputs": [
        {
          "internalType": "uint256",
          "name": "vehicleId",
          "type": "uint256"
        },
        {
          "internalType": "uint256",
          "name": "duration",
          "type": "uint256"
        }
      ],
      "name": "startVehicleAuction",
      "outputs": [],
      "stateMutability": "nonpayable",
      "type": "function"
    },
    {
      "inputs": [
        {
          "internalType": "uint256",
          "name": "vehicleId",
          "type": "uint256"
        }
      ],
      "name": "placeVehicleBid",
      "outputs": [],
      "stateMutability": "payable",
      "type": "function",
      "payable": true
    },
    {
      "inputs": [
        {
          "internalType": "uint256",
          "name": "vehicleId",
          "type": "uint256"
        }
      ],
      "name": "endVehicleAuction",
      "outputs": [],
      "stateMutability": "nonpayable",
      "type": "function"
    }
  ],
  "bytecode": "0x608060405234801561001057600080fd5b50610cb1806100206000396000f3fe60806040526004361061006f5760003560e01c8063597fd1e01161004e578063597fd1e0146101175780637f6e785d14610154578063cc43b02614610191578063e66c3372146101ad5761006f565b80622088ce14610074578063123b718f146100b15780633c5d21f6146100ee575b600080fd5b34801561008057600080fd5b5061009b60048036038101906100969190610899565b6101d6565b6040516100a89190610a9c565b60405180910390f35b3480156100bd57600080fd5b506100d860048036038101906100d39190610899565b610209565b6040516100e59190610a9c565b60405180910390f35b3480156100fa57600080fd5b50610115600480360381019061011091906108c2565b61023c565b005b34801561012357600080fd5b5061013e60048036038101906101399190610899565b610359565b60405161014b9190610b77565b60405180910390f35b34801561016057600080fd5b5061017b60048036038101906101769190610899565b610371565b6040516101889190610b77565b60405180910390f35b6101ab60048036038101906101a69190610899565b610389565b005b3480156101b957600080fd5b506101d460048036038101906101cf9190610899565b6105a0565b005b60006020528060005260406000206000915054906101000a900473ffffffffffffffffffffffffffffffffffffffff1681565b60036020528060005260406000206000915054906101000a900473ffffffffffffffffffffffffffffffffffffffff1681565b3373ffffffffffffffffffffffffffffffffffffffff1660008084815260200190815260200160002060009054906101000a900473ffffffffffffffffffffffffffffffffffffffff1673ffffffffffffffffffffffffffffffffffffffff16146102dc576040517f08c379a00000000000000000000000000000000000000000000000000000000081526004016102d390610af7565b60405180910390fd5b6000600160008481526020019081526020016000205414610332576040517f08c379a000000000000000000000000000000000000000000000000000000000815260040161032990610b17565b60405180910390fd5b804261033e9190610ba3565b60016000848152602001908152602001600020819055505050565b60016020528060005260406000206000915090505481565b60026020528060005260406000206000915090505481565b60006001600083815260200190815260200160002054116103df576040517f08c379a00000000000000000000000000000000000000000000000000000000081526004016103d690610b37565b60405180910390fd5b60016000828152602001908152602001600020544210610434576040517f08c379a000000000000000000000000000000000000000000000000000000000815260040161042b90610b57565b60405180910390fd5b60026000828152602001908152602001600020543411610489576040517f08c379a000000000000000000000000000000000000000000000000000000000815260040161048090610ab7565b60405180910390fd5b600060026000838152602001908152602001600020541115610533576003600082815260200190815260200160002060009054906101000a900473ffffffffffffffffffffffffffffffffffffffff1673ffffffffffffffffffffffffffffffffffffffff166108fc60026000848152602001908152602001600020549081150290604051600060405180830381858888f19350505050158015610531573d6000803e3d6000fd5b505b346002600083815260200190815260200160002081905550336003600083815260200190815260200160002060006101000a81548173ffffffffffffffffffffffffffffffffffffffff021916908373ffffffffffffffffffffffffffffffffffffffff16021790555050565b3373ffffffffffffffffffffffffffffffffffffffff1660008083815260200190815260200160002060009054906101000a900473ffffffffffffffffffffffffffffffffffffffff1673ffffffffffffffffffffffffffffffffffffffff1614610640576040517f08c379a000000000000000000000000000000000000000000000000000000000815260040161063790610af7565b60405180910390fd5b6000600160008381526020019081526020016000205411610696576040517f08c379a000000000000000000000000000000000000000000000000000000000815260040161068d90610b37565b60405180910390fd5b60016000828152602001908152602001600020544210156106ec576040517f08c379a00000000000000000000000000000000000000000000000000000000081526004016106e390610ad7565b60405180910390fd5b60008082815260200190815260200160002060009054906101000a900473ffffffffffffffffffffffffffffffffffffffff1673ffffffffffffffffffffffffffffffffffffffff166108fc60026000848152602001908152602001600020549081150290604051600060405180830381858888f19350505050158015610777573d6000803e3d6000fd5b506003600082815260200190815260200160002060009054906101000a900473ffffffffffffffffffffffffffffffffffffffff1660008083815260200190815260200160002060006101000a81548173ffffffffffffffffffffffffffffffffffffffff021916908373ffffffffffffffffffffffffffffffffffffffff160217905550600060016000838152602001908152602001600020819055506000600260008381526020019081526020016000208190555060006003600083815260200190815260200160002060006101000a81548173ffffffffffffffffffffffffffffffffffffffff021916908373ffffffffffffffffffffffffffffffffffffffff16021790555050565b60008135905061089381610c64565b92915050565b6000602082840312156108ab57600080fd5b60006108b984828501610884565b91505092915050565b600080604083850312156108d557600080fd5b60006108e385828601610884565b92505060206108f485828601610884565b9150509250929050565b61090781610bf9565b82525050565b600061091a600b83610b92565b91507f42696420746f6f206c6f770000000000000000000000000000000000000000006000830152602082019050919050565b600061095a601583610b92565b91507f41756374696f6e207374696c6c206f6e676f696e6700000000000000000000006000830152602082019050919050565b600061099a601583610b92565b91507f596f7520617265206e6f7420746865206f776e657200000000000000000000006000830152602082019050919050565b60006109da601783610b92565b91507f41756374696f6e20616c726561647920737461727465640000000000000000006000830152602082019050919050565b6000610a1a601383610b92565b91507f41756374696f6e206e6f742073746172746564000000000000000000000000006000830152602082019050919050565b6000610a5a600d83610b92565b91507f41756374696f6e20656e646564000000000000000000000000000000000000006000830152602082019050919050565b610a9681610c2b565b82525050565b6000602082019050610ab160008301846108fe565b92915050565b60006020820190508181036000830152610ad08161090d565b9050919050565b60006020820190508181036000830152610af08161094d565b9050919050565b60006020820190508181036000830152610b108161098d565b9050919050565b60006020820190508181036000830152610b30816109cd565b9050919050565b60006020820190508181036000830152610b5081610a0d565b9050919050565b60006020820190508181036000830152610b7081610a4d565b9050919050565b6000602082019050610b8c6000830184610a8d565b92915050565b600082825260208201905092915050565b6000610bae82610c2b565b9150610bb983610c2b565b9250827fffffffffffffffffffffffffffffffffffffffffffffffffffffffffffffffff03821115610bee57610bed610c35565b5b828201905092915050565b6000610c0482610c0b565b9050919050565b600073ffffffffffffffffffffffffffffffffffffffff82169050919050565b6000819050919050565b7f4e487b7100000000000000000000000000000000000000000000000000000000600052601160045260246000fd5b610c6d81610c2b565b8114610c7857600080fd5b5056fea2646970667358221220347b788322aba2c791bc50a9c0c35bc6efe55cef13ce60e236ef59627347f81c64736f6c63430008000033",
  "immutableReferences": {},
  "source": "// SPDX-License-Identifier: MIT\r\npragma solidity ^0.8.0;\r\n\r\ncontract VehicleAuction {\r\n    mapping(uint256 => address) public vehicleOwners;\r\n    mapping(uint256 => uint256) public vehicleAuctionEndTimes;\r\n    mapping(uint256 => uint256) public vehicleHighestBids;\r\n    mapping(uint256 => address) public vehicleHighestBidders;\r\n\r\n    function startVehicleAuction(uint256 vehicleId, uint256 duration) external {\r\n        require(vehicleOwners[vehicleId] == msg.sender, \"You are not the owner\");\r\n        require(vehicleAuctionEndTimes[vehicleId] == 0, \"Auction already started\");\r\n        vehicleAuctionEndTimes[vehicleId] = block.timestamp + duration;\r\n    }\r\n\r\n    function placeVehicleBid(uint256 vehicleId) external payable {\r\n        require(vehicleAuctionEndTimes[vehicleId] > 0, \"Auction not started\");\r\n        require(block.timestamp < vehicleAuctionEndTimes[vehicleId], \"Auction ended\");\r\n        require(msg.value > vehicleHighestBids[vehicleId], \"Bid too low\");\r\n        if (vehicleHighestBids[vehicleId] > 0) {\r\n            payable(vehicleHighestBidders[vehicleId]).transfer(vehicleHighestBids[vehicleId]);\r\n        }\r\n        vehicleHighestBids[vehicleId] = msg.value;\r\n        vehicleHighestBidders[vehicleId] = msg.sender;\r\n    }\r\n\r\n    function endVehicleAuction(uint256 vehicleId) external {\r\n        require(vehicleOwners[vehicleId] == msg.sender, \"You are not the owner\");\r\n        require(vehicleAuctionEndTimes[vehicleId] > 0, \"Auction not started\");\r\n        require(block.timestamp >= vehicleAuctionEndTimes[vehicleId], \"Auction still ongoing\");\r\n        payable(vehicleOwners[vehicleId]).transfer(vehicleHighestBids[vehicleId]);\r\n        vehicleOwners[vehicleId] = vehicleHighestBidders[vehicleId];\r\n        vehicleAuctionEndTimes[vehicleId] = 0;\r\n        vehicleHighestBids[vehicleId] = 0;\r\n        vehicleHighestBidders[vehicleId] = address(0);\r\n    }\r\n}\r\n",
  "sourcePath": "C:\\Users\\admin\\OneDrive\\Desktop\\AssetHub\\contract\\contracts\\VehicleAuction.sol",
  "compiler": {
    "name": "solc",
    "version": "0.8.0+commit.c7dfd78e.Emscripten.clang"
  },
  "schemaVersion": "3.4.16",
  "updatedAt": "2024-02-01T20:02:29.702Z",
  "networkType": "ethereum",
  "devdoc": {
    "kind": "dev",
    "methods": {},
    "version": 1
  },
  "userdoc": {
    "kind": "user",
    "methods": {},
    "version": 1
  }
}