{
  "contractName": "VehicleMarketplace",
  "abi": [
    {
      "inputs": [
        {
          "internalType": "uint256",
          "name": "",
          "type": "uint256"
        }
      ],
      "name": "vehicleOwners",
      "outputs": [
        {
          "internalType": "address",
          "name": "",
          "type": "address"
        }
      ],
      "stateMutability": "view",
      "type": "function",
      "constant": true
    },
    {
      "inputs": [
        {
          "internalType": "uint256",
          "name": "",
          "type": "uint256"
        }
      ],
      "name": "vehiclePrices",
      "outputs": [
        {
          "internalType": "uint256",
          "name": "",
          "type": "uint256"
        }
      ],
      "stateMutability": "view",
      "type": "function",
      "constant": true
    },
    {
      "inputs": [
        {
          "internalType": "uint256",
          "name": "vehicleId",
          "type": "uint256"
        },
        {
          "internalType": "uint256",
          "name": "price",
          "type": "uint256"
        }
      ],
      "name": "sellVehicle",
      "outputs": [],
      "stateMutability": "nonpayable",
      "type": "function"
    },
    {
      "inputs": [
        {
          "internalType": "uint256",
          "name": "vehicleId",
          "type": "uint256"
        }
      ],
      "name": "buyVehicle",
      "outputs": [],
      "stateMutability": "payable",
      "type": "function",
      "payable": true
    }
  ],
  "bytecode": "0x608060405234801561001057600080fd5b5061065b806100206000396000f3fe60806040526004361061003e5760003560e01c80622088ce1461004357806336ce0920146100805780637e303eb41461009c578063b342f9f3146100c5575b600080fd5b34801561004f57600080fd5b5061006a600480360381019061006591906103e8565b610102565b604051610077919061052b565b60405180910390f35b61009a600480360381019061009591906103e8565b610135565b005b3480156100a857600080fd5b506100c360048036038101906100be9190610411565b6102ff565b005b3480156100d157600080fd5b506100ec60048036038101906100e791906103e8565b6103bb565b6040516100f991906105a6565b60405180910390f35b60006020528060005260406000206000915054906101000a900473ffffffffffffffffffffffffffffffffffffffff1681565b600073ffffffffffffffffffffffffffffffffffffffff1660008083815260200190815260200160002060009054906101000a900473ffffffffffffffffffffffffffffffffffffffff1673ffffffffffffffffffffffffffffffffffffffff1614156101d7576040517f08c379a00000000000000000000000000000000000000000000000000000000081526004016101ce90610566565b60405180910390fd5b6001600082815260200190815260200160002054341461022c576040517f08c379a000000000000000000000000000000000000000000000000000000000815260040161022390610586565b60405180910390fd5b600080600083815260200190815260200160002060009054906101000a900473ffffffffffffffffffffffffffffffffffffffff1690503360008084815260200190815260200160002060006101000a81548173ffffffffffffffffffffffffffffffffffffffff021916908373ffffffffffffffffffffffffffffffffffffffff1602179055508073ffffffffffffffffffffffffffffffffffffffff166108fc349081150290604051600060405180830381858888f193505050501580156102fa573d6000803e3d6000fd5b505050565b3373ffffffffffffffffffffffffffffffffffffffff1660008084815260200190815260200160002060009054906101000a900473ffffffffffffffffffffffffffffffffffffffff1673ffffffffffffffffffffffffffffffffffffffff161461039f576040517f08c379a000000000000000000000000000000000000000000000000000000000815260040161039690610546565b60405180910390fd5b8060016000848152602001908152602001600020819055505050565b60016020528060005260406000206000915090505481565b6000813590506103e28161060e565b92915050565b6000602082840312156103fa57600080fd5b6000610408848285016103d3565b91505092915050565b6000806040838503121561042457600080fd5b6000610432858286016103d3565b9250506020610443858286016103d3565b9150509250929050565b610456816105d2565b82525050565b60006104696015836105c1565b91507f596f7520617265206e6f7420746865206f776e657200000000000000000000006000830152602082019050919050565b60006104a96016836105c1565b91507f56656869636c65206e6f742072656769737465726564000000000000000000006000830152602082019050919050565b60006104e96010836105c1565b91507f496e636f727265637420616d6f756e74000000000000000000000000000000006000830152602082019050919050565b61052581610604565b82525050565b6000602082019050610540600083018461044d565b92915050565b6000602082019050818103600083015261055f8161045c565b9050919050565b6000602082019050818103600083015261057f8161049c565b9050919050565b6000602082019050818103600083015261059f816104dc565b9050919050565b60006020820190506105bb600083018461051c565b92915050565b600082825260208201905092915050565b60006105dd826105e4565b9050919050565b600073ffffffffffffffffffffffffffffffffffffffff82169050919050565b6000819050919050565b61061781610604565b811461062257600080fd5b5056fea2646970667358221220e9eb4bda219efa39b96e1f6ddf16becd1018d8307e372a2c0d5003566a03617b64736f6c63430008000033",
  "immutableReferences": {},
  "source": "// SPDX-License-Identifier: MIT\r\npragma solidity ^0.8.0;\r\n\r\ncontract VehicleMarketplace {\r\n    mapping(uint256 => address) public vehicleOwners;\r\n    mapping(uint256 => uint256) public vehiclePrices;\r\n\r\n    function sellVehicle(uint256 vehicleId, uint256 price) external {\r\n        require(vehicleOwners[vehicleId] == msg.sender, \"You are not the owner\");\r\n        vehiclePrices[vehicleId] = price;\r\n    }\r\n\r\n    function buyVehicle(uint256 vehicleId) external payable {\r\n        require(vehicleOwners[vehicleId] != address(0), \"Vehicle not registered\");\r\n        require(msg.value == vehiclePrices[vehicleId], \"Incorrect amount\");\r\n        address previousOwner = vehicleOwners[vehicleId];\r\n        vehicleOwners[vehicleId] = msg.sender;\r\n        payable(previousOwner).transfer(msg.value);\r\n    }\r\n}\r\n",
  "sourcePath": "C:\\Users\\admin\\OneDrive\\Desktop\\AssetHub\\contract\\contracts\\VehicleMarketplace.sol",
  "compiler": {
    "name": "solc",
    "version": "0.8.0+commit.c7dfd78e.Emscripten.clang"
  },
  "schemaVersion": "3.4.16",
  "updatedAt": "2024-02-01T20:02:31.917Z",
  "networkType": "ethereum",
  "devdoc": {
    "kind": "dev",
    "methods": {},
    "version": 1
  },
  "userdoc": {
    "kind": "user",
    "methods": {},
    "version": 1
  }
}