{
  "contractName": "VehiclePaymentTracking",
  "abi": [
    {
      "inputs": [
        {
          "internalType": "uint256",
          "name": "",
          "type": "uint256"
        }
      ],
      "name": "vehicleTransactionAmounts",
      "outputs": [
        {
          "internalType": "uint256",
          "name": "",
          "type": "uint256"
        }
      ],
      "stateMutability": "view",
      "type": "function",
      "constant": true
    },
    {
      "inputs": [
        {
          "internalType": "uint256",
          "name": "",
          "type": "uint256"
        }
      ],
      "name": "vehicleTransactionsCompleted",
      "outputs": [
        {
          "internalType": "bool",
          "name": "",
          "type": "bool"
        }
      ],
      "stateMutability": "view",
      "type": "function",
      "constant": true
    },
    {
      "inputs": [
        {
          "internalType": "uint256",
          "name": "vehicleId",
          "type": "uint256"
        },
        {
          "internalType": "uint256",
          "name": "amount",
          "type": "uint256"
        }
      ],
      "name": "initiateVehicleTransaction",
      "outputs": [],
      "stateMutability": "nonpayable",
      "type": "function"
    },
    {
      "inputs": [
        {
          "internalType": "uint256",
          "name": "vehicleId",
          "type": "uint256"
        }
      ],
      "name": "completeVehicleTransaction",
      "outputs": [],
      "stateMutability": "nonpayable",
      "type": "function"
    }
  ],
  "bytecode": "0x608060405234801561001057600080fd5b50610427806100206000396000f3fe608060405234801561001057600080fd5b506004361061004c5760003560e01c8063033b4ccc146100515780631cb878b81461006d578063a7ae16ad1461009d578063e80edc55146100b9575b600080fd5b61006b600480360381019061006691906102c3565b6100e9565b005b6100876004803603810190610082919061029a565b610165565b604051610094919061035d565b60405180910390f35b6100b760048036038101906100b2919061029a565b610185565b005b6100d360048036038101906100ce919061029a565b61026d565b6040516100e09190610398565b60405180910390f35b6001600083815260200190815260200160002060009054906101000a900460ff161561014a576040517f08c379a000000000000000000000000000000000000000000000000000000000815260040161014190610378565b60405180910390fd5b80600080848152602001908152602001600020819055505050565b60016020528060005260406000206000915054906101000a900460ff1681565b6001600082815260200190815260200160002060009054906101000a900460ff16156101e6576040517f08c379a00000000000000000000000000000000000000000000000000000000081526004016101dd90610378565b60405180910390fd5b3373ffffffffffffffffffffffffffffffffffffffff166108fc600080848152602001908152602001600020549081150290604051600060405180830381858888f1935050505015801561023e573d6000803e3d6000fd5b50600180600083815260200190815260200160002060006101000a81548160ff02191690831515021790555050565b60006020528060005260406000206000915090505481565b600081359050610294816103da565b92915050565b6000602082840312156102ac57600080fd5b60006102ba84828501610285565b91505092915050565b600080604083850312156102d657600080fd5b60006102e485828601610285565b92505060206102f585828601610285565b9150509250929050565b610308816103c4565b82525050565b600061031b601d836103b3565b91507f5472616e73616374696f6e20616c726561647920636f6d706c657465640000006000830152602082019050919050565b610357816103d0565b82525050565b600060208201905061037260008301846102ff565b92915050565b600060208201905081810360008301526103918161030e565b9050919050565b60006020820190506103ad600083018461034e565b92915050565b600082825260208201905092915050565b60008115159050919050565b6000819050919050565b6103e3816103d0565b81146103ee57600080fd5b5056fea2646970667358221220f6ace1cef8e0e2cae8a79341f7133f32e7c82197d4a1045e32c05938b3df632564736f6c63430008000033",
  "immutableReferences": {},
  "source": "// SPDX-License-Identifier: MIT\r\npragma solidity ^0.8.0;\r\n\r\ncontract VehiclePaymentTracking {\r\n    mapping(uint256 => uint256) public vehicleTransactionAmounts;\r\n    mapping(uint256 => bool) public vehicleTransactionsCompleted;\r\n\r\n    function initiateVehicleTransaction(uint256 vehicleId, uint256 amount) external {\r\n        require(!vehicleTransactionsCompleted[vehicleId], \"Transaction already completed\");\r\n        vehicleTransactionAmounts[vehicleId] = amount;\r\n    }\r\n\r\n    function completeVehicleTransaction(uint256 vehicleId) external {\r\n        require(!vehicleTransactionsCompleted[vehicleId], \"Transaction already completed\");\r\n        payable(msg.sender).transfer(vehicleTransactionAmounts[vehicleId]);\r\n        vehicleTransactionsCompleted[vehicleId] = true;\r\n    }\r\n}\r\n",
  "sourcePath": "C:\\Users\\admin\\OneDrive\\Desktop\\AssetHub\\contract\\contracts\\VehiclePaymentTracking.sol",
  "compiler": {
    "name": "solc",
    "version": "0.8.0+commit.c7dfd78e.Emscripten.clang"
  },
  "schemaVersion": "3.4.16",
  "updatedAt": "2024-02-01T20:02:35.250Z",
  "networkType": "ethereum",
  "devdoc": {
    "kind": "dev",
    "methods": {},
    "version": 1
  },
  "userdoc": {
    "kind": "user",
    "methods": {},
    "version": 1
  }
}